{
	"data": {
		"bytecode": {
			"linkReferences": {},
			"object": "6080604052348015600e575f5ffd5b5061025f8061001c5f395ff3fe608060405234801561000f575f5ffd5b506004361061004a575f3560e01c8063b6854a211461004e578063d63404c21461006c578063eb3af7461461009c578063ef551770146100b8575b5f5ffd5b6100566100d6565b6040516100639190610119565b60405180910390f35b61008660048036038101906100819190610160565b6100db565b6040516100939190610119565b60405180910390f35b6100b660048036038101906100b1919061019e565b6100f0565b005b6100c06100f9565b6040516100cd9190610119565b60405180910390f35b5f5481565b5f81836100e891906101f6565b905092915050565b805f8190555050565b5f5f54905090565b5f819050919050565b61011381610101565b82525050565b5f60208201905061012c5f83018461010a565b92915050565b5f5ffd5b61013f81610101565b8114610149575f5ffd5b50565b5f8135905061015a81610136565b92915050565b5f5f6040838503121561017657610175610132565b5b5f6101838582860161014c565b92505060206101948582860161014c565b9150509250929050565b5f602082840312156101b3576101b2610132565b5b5f6101c08482850161014c565b91505092915050565b7f4e487b71000000000000000000000000000000000000000000000000000000005f52601160045260245ffd5b5f61020082610101565b915061020b83610101565b9250828201905080821115610223576102226101c9565b5b9291505056fea2646970667358221220de1f3d6a0d9a9c4b76d877b7788a00b1e7c175c016fd4df47d78b287250fa47e64736f6c634300081c0033",
			"opcodes": "PUSH1 0x80 PUSH1 0x40 MSTORE CALLVALUE DUP1 ISZERO PUSH1 0xE JUMPI PUSH0 PUSH0 REVERT JUMPDEST POP PUSH2 0x25F DUP1 PUSH2 0x1C PUSH0 CODECOPY PUSH0 RETURN INVALID PUSH1 0x80 PUSH1 0x40 MSTORE CALLVALUE DUP1 ISZERO PUSH2 0xF JUMPI PUSH0 PUSH0 REVERT JUMPDEST POP PUSH1 0x4 CALLDATASIZE LT PUSH2 0x4A JUMPI PUSH0 CALLDATALOAD PUSH1 0xE0 SHR DUP1 PUSH4 0xB6854A21 EQ PUSH2 0x4E JUMPI DUP1 PUSH4 0xD63404C2 EQ PUSH2 0x6C JUMPI DUP1 PUSH4 0xEB3AF746 EQ PUSH2 0x9C JUMPI DUP1 PUSH4 0xEF551770 EQ PUSH2 0xB8 JUMPI JUMPDEST PUSH0 PUSH0 REVERT JUMPDEST PUSH2 0x56 PUSH2 0xD6 JUMP JUMPDEST PUSH1 0x40 MLOAD PUSH2 0x63 SWAP2 SWAP1 PUSH2 0x119 JUMP JUMPDEST PUSH1 0x40 MLOAD DUP1 SWAP2 SUB SWAP1 RETURN JUMPDEST PUSH2 0x86 PUSH1 0x4 DUP1 CALLDATASIZE SUB DUP2 ADD SWAP1 PUSH2 0x81 SWAP2 SWAP1 PUSH2 0x160 JUMP JUMPDEST PUSH2 0xDB JUMP JUMPDEST PUSH1 0x40 MLOAD PUSH2 0x93 SWAP2 SWAP1 PUSH2 0x119 JUMP JUMPDEST PUSH1 0x40 MLOAD DUP1 SWAP2 SUB SWAP1 RETURN JUMPDEST PUSH2 0xB6 PUSH1 0x4 DUP1 CALLDATASIZE SUB DUP2 ADD SWAP1 PUSH2 0xB1 SWAP2 SWAP1 PUSH2 0x19E JUMP JUMPDEST PUSH2 0xF0 JUMP JUMPDEST STOP JUMPDEST PUSH2 0xC0 PUSH2 0xF9 JUMP JUMPDEST PUSH1 0x40 MLOAD PUSH2 0xCD SWAP2 SWAP1 PUSH2 0x119 JUMP JUMPDEST PUSH1 0x40 MLOAD DUP1 SWAP2 SUB SWAP1 RETURN JUMPDEST PUSH0 SLOAD DUP2 JUMP JUMPDEST PUSH0 DUP2 DUP4 PUSH2 0xE8 SWAP2 SWAP1 PUSH2 0x1F6 JUMP JUMPDEST SWAP1 POP SWAP3 SWAP2 POP POP JUMP JUMPDEST DUP1 PUSH0 DUP2 SWAP1 SSTORE POP POP JUMP JUMPDEST PUSH0 PUSH0 SLOAD SWAP1 POP SWAP1 JUMP JUMPDEST PUSH0 DUP2 SWAP1 POP SWAP2 SWAP1 POP JUMP JUMPDEST PUSH2 0x113 DUP2 PUSH2 0x101 JUMP JUMPDEST DUP3 MSTORE POP POP JUMP JUMPDEST PUSH0 PUSH1 0x20 DUP3 ADD SWAP1 POP PUSH2 0x12C PUSH0 DUP4 ADD DUP5 PUSH2 0x10A JUMP JUMPDEST SWAP3 SWAP2 POP POP JUMP JUMPDEST PUSH0 PUSH0 REVERT JUMPDEST PUSH2 0x13F DUP2 PUSH2 0x101 JUMP JUMPDEST DUP2 EQ PUSH2 0x149 JUMPI PUSH0 PUSH0 REVERT JUMPDEST POP JUMP JUMPDEST PUSH0 DUP2 CALLDATALOAD SWAP1 POP PUSH2 0x15A DUP2 PUSH2 0x136 JUMP JUMPDEST SWAP3 SWAP2 POP POP JUMP JUMPDEST PUSH0 PUSH0 PUSH1 0x40 DUP4 DUP6 SUB SLT ISZERO PUSH2 0x176 JUMPI PUSH2 0x175 PUSH2 0x132 JUMP JUMPDEST JUMPDEST PUSH0 PUSH2 0x183 DUP6 DUP3 DUP7 ADD PUSH2 0x14C JUMP JUMPDEST SWAP3 POP POP PUSH1 0x20 PUSH2 0x194 DUP6 DUP3 DUP7 ADD PUSH2 0x14C JUMP JUMPDEST SWAP2 POP POP SWAP3 POP SWAP3 SWAP1 POP JUMP JUMPDEST PUSH0 PUSH1 0x20 DUP3 DUP5 SUB SLT ISZERO PUSH2 0x1B3 JUMPI PUSH2 0x1B2 PUSH2 0x132 JUMP JUMPDEST JUMPDEST PUSH0 PUSH2 0x1C0 DUP5 DUP3 DUP6 ADD PUSH2 0x14C JUMP JUMPDEST SWAP2 POP POP SWAP3 SWAP2 POP POP JUMP JUMPDEST PUSH32 0x4E487B7100000000000000000000000000000000000000000000000000000000 PUSH0 MSTORE PUSH1 0x11 PUSH1 0x4 MSTORE PUSH1 0x24 PUSH0 REVERT JUMPDEST PUSH0 PUSH2 0x200 DUP3 PUSH2 0x101 JUMP JUMPDEST SWAP2 POP PUSH2 0x20B DUP4 PUSH2 0x101 JUMP JUMPDEST SWAP3 POP DUP3 DUP3 ADD SWAP1 POP DUP1 DUP3 GT ISZERO PUSH2 0x223 JUMPI PUSH2 0x222 PUSH2 0x1C9 JUMP JUMPDEST JUMPDEST SWAP3 SWAP2 POP POP JUMP INVALID LOG2 PUSH5 0x6970667358 0x22 SLT KECCAK256 0xDE 0x1F RETURNDATASIZE PUSH11 0xD9A9C4B76D877B7788A00 0xB1 0xE7 0xC1 PUSH22 0xC016FD4DF47D78B287250FA47E64736F6C634300081C STOP CALLER "
		},
		"gasEstimates": {
			"creation": {
				"codeDepositCost": "121400",
				"executionCost": "163",
				"totalCost": "121563"
			},
			"external": {
				"addAddition(uint256,uint256)": "infinite",
				"getMyVariable()": "2475",
				"setMyStorage(uint256)": "22536",
				"variable()": "2402"
			}
		},
		"methodIdentifiers": {
			"addAddition(uint256,uint256)": "d63404c2",
			"getMyVariable()": "ef551770",
			"setMyStorage(uint256)": "eb3af746",
			"variable()": "b6854a21"
		}
	},
	"abi": [
		{
			"inputs": [
				{
					"internalType": "uint256",
					"name": "a",
					"type": "uint256"
				},
				{
					"internalType": "uint256",
					"name": "b",
					"type": "uint256"
				}
			],
			"name": "addAddition",
			"outputs": [
				{
					"internalType": "uint256",
					"name": "",
					"type": "uint256"
				}
			],
			"stateMutability": "pure",
			"type": "function"
		},
		{
			"inputs": [],
			"name": "getMyVariable",
			"outputs": [
				{
					"internalType": "uint256",
					"name": "",
					"type": "uint256"
				}
			],
			"stateMutability": "view",
			"type": "function"
		},
		{
			"inputs": [
				{
					"internalType": "uint256",
					"name": "_val",
					"type": "uint256"
				}
			],
			"name": "setMyStorage",
			"outputs": [],
			"stateMutability": "nonpayable",
			"type": "function"
		},
		{
			"inputs": [],
			"name": "variable",
			"outputs": [
				{
					"internalType": "uint256",
					"name": "",
					"type": "uint256"
				}
			],
			"stateMutability": "view",
			"type": "function"
		}
	]
}